{
  "contractName": "App",
  "abi": [
    {
      "inputs": [
        {
          "internalType": "uint256",
          "name": "",
          "type": "uint256"
        }
      ],
      "name": "sensorByID",
      "outputs": [
        {
          "internalType": "uint256",
          "name": "id",
          "type": "uint256"
        },
        {
          "internalType": "string",
          "name": "name",
          "type": "string"
        },
        {
          "internalType": "uint256",
          "name": "value",
          "type": "uint256"
        },
        {
          "internalType": "address",
          "name": "user",
          "type": "address"
        }
      ],
      "stateMutability": "view",
      "type": "function",
      "constant": true
    },
    {
      "inputs": [],
      "name": "sensorIndex",
      "outputs": [
        {
          "internalType": "uint256",
          "name": "",
          "type": "uint256"
        }
      ],
      "stateMutability": "view",
      "type": "function",
      "constant": true
    },
    {
      "inputs": [
        {
          "internalType": "uint256",
          "name": "",
          "type": "uint256"
        }
      ],
      "name": "sensors",
      "outputs": [
        {
          "internalType": "uint256",
          "name": "id",
          "type": "uint256"
        },
        {
          "internalType": "string",
          "name": "name",
          "type": "string"
        },
        {
          "internalType": "uint256",
          "name": "value",
          "type": "uint256"
        },
        {
          "internalType": "address",
          "name": "user",
          "type": "address"
        }
      ],
      "stateMutability": "view",
      "type": "function",
      "constant": true
    },
    {
      "inputs": [
        {
          "internalType": "address",
          "name": "",
          "type": "address"
        },
        {
          "internalType": "uint256",
          "name": "",
          "type": "uint256"
        }
      ],
      "name": "userSensors",
      "outputs": [
        {
          "internalType": "uint256",
          "name": "id",
          "type": "uint256"
        },
        {
          "internalType": "string",
          "name": "name",
          "type": "string"
        },
        {
          "internalType": "uint256",
          "name": "value",
          "type": "uint256"
        },
        {
          "internalType": "address",
          "name": "user",
          "type": "address"
        }
      ],
      "stateMutability": "view",
      "type": "function",
      "constant": true
    },
    {
      "inputs": [
        {
          "internalType": "string",
          "name": "name",
          "type": "string"
        },
        {
          "internalType": "uint256",
          "name": "value",
          "type": "uint256"
        }
      ],
      "name": "createSensor",
      "outputs": [
        {
          "components": [
            {
              "internalType": "uint256",
              "name": "id",
              "type": "uint256"
            },
            {
              "internalType": "string",
              "name": "name",
              "type": "string"
            },
            {
              "internalType": "uint256",
              "name": "value",
              "type": "uint256"
            },
            {
              "internalType": "address",
              "name": "user",
              "type": "address"
            }
          ],
          "internalType": "struct App.Sensor",
          "name": "",
          "type": "tuple"
        }
      ],
      "stateMutability": "nonpayable",
      "type": "function"
    },
    {
      "inputs": [
        {
          "internalType": "address",
          "name": "user",
          "type": "address"
        }
      ],
      "name": "getSensors",
      "outputs": [
        {
          "components": [
            {
              "internalType": "uint256",
              "name": "id",
              "type": "uint256"
            },
            {
              "internalType": "string",
              "name": "name",
              "type": "string"
            },
            {
              "internalType": "uint256",
              "name": "value",
              "type": "uint256"
            },
            {
              "internalType": "address",
              "name": "user",
              "type": "address"
            }
          ],
          "internalType": "struct App.Sensor[]",
          "name": "",
          "type": "tuple[]"
        }
      ],
      "stateMutability": "view",
      "type": "function",
      "constant": true
    },
    {
      "inputs": [
        {
          "internalType": "uint256",
          "name": "id",
          "type": "uint256"
        },
        {
          "internalType": "uint256",
          "name": "value",
          "type": "uint256"
        }
      ],
      "name": "updateSensor",
      "outputs": [
        {
          "components": [
            {
              "internalType": "uint256",
              "name": "id",
              "type": "uint256"
            },
            {
              "internalType": "string",
              "name": "name",
              "type": "string"
            },
            {
              "internalType": "uint256",
              "name": "value",
              "type": "uint256"
            },
            {
              "internalType": "address",
              "name": "user",
              "type": "address"
            }
          ],
          "internalType": "struct App.Sensor",
          "name": "",
          "type": "tuple"
        }
      ],
      "stateMutability": "nonpayable",
      "type": "function"
    },
    {
      "inputs": [
        {
          "internalType": "uint256",
          "name": "id",
          "type": "uint256"
        }
      ],
      "name": "getSensor",
      "outputs": [
        {
          "components": [
            {
              "internalType": "uint256",
              "name": "id",
              "type": "uint256"
            },
            {
              "internalType": "string",
              "name": "name",
              "type": "string"
            },
            {
              "internalType": "uint256",
              "name": "value",
              "type": "uint256"
            },
            {
              "internalType": "address",
              "name": "user",
              "type": "address"
            }
          ],
          "internalType": "struct App.Sensor",
          "name": "",
          "type": "tuple"
        }
      ],
      "stateMutability": "view",
      "type": "function",
      "constant": true
    }
  ],
  "bytecode": "0x6080604052348015600f57600080fd5b506116278061001f6000396000f3fe608060405234801561001057600080fd5b50600436106100a5576000357c0100000000000000000000000000000000000000000000000000000000900480638519b29c116100785780638519b29c1461016d5780638badb85b146101a0578063afb6e69f146101be578063f90adc76146101f1576100a5565b806332192566146100aa578063412f2e82146100da578063643344e81461010d578063788044261461013d575b600080fd5b6100c460048036038101906100bf9190610cb5565b610221565b6040516100d19190610e38565b60405180910390f35b6100f460048036038101906100ef9190610e5a565b61040a565b6040516101049493929190610eef565b60405180910390f35b61012760048036038101906101229190610fa0565b6104f2565b6040516101349190610e38565b60405180910390f35b61015760048036038101906101529190610e5a565b6107a1565b6040516101649190610e38565b60405180910390f35b6101876004803603810190610182919061102c565b6108ca565b6040516101979493929190610eef565b60405180910390f35b6101a86109bf565b6040516101b5919061106c565b60405180910390f35b6101d860048036038101906101d39190610e5a565b6109c5565b6040516101e89493929190610eef565b60405180910390f35b61020b60048036038101906102069190611087565b610a9d565b60405161021891906111d9565b60405180910390f35b610229610c37565b3373ffffffffffffffffffffffffffffffffffffffff166002600085815260200190815260200160002060030160009054906101000a900473ffffffffffffffffffffffffffffffffffffffff1673ffffffffffffffffffffffffffffffffffffffff16146102cd576040517f08c379a00000000000000000000000000000000000000000000000000000000081526004016102c490611247565b60405180910390fd5b816002600085815260200190815260200160002060020181905550600260008481526020019081526020016000206040518060800160405290816000820154815260200160018201805461032090611296565b80601f016020809104026020016040519081016040528092919081815260200182805461034c90611296565b80156103995780601f1061036e57610100808354040283529160200191610399565b820191906000526020600020905b81548152906001019060200180831161037c57829003601f168201915b50505050508152602001600282015481526020016003820160009054906101000a900473ffffffffffffffffffffffffffffffffffffffff1673ffffffffffffffffffffffffffffffffffffffff1673ffffffffffffffffffffffffffffffffffffffff1681525050905092915050565b6001818154811061041a57600080fd5b906000526020600020906004020160009150905080600001549080600101805461044390611296565b80601f016020809104026020016040519081016040528092919081815260200182805461046f90611296565b80156104bc5780601f10610491576101008083540402835291602001916104bc565b820191906000526020600020905b81548152906001019060200180831161049f57829003601f168201915b5050505050908060020154908060030160009054906101000a900473ffffffffffffffffffffffffffffffffffffffff16905084565b6104fa610c37565b60008081548092919061050c906112f6565b919050555060006040518060800160405280600054815260200186868080601f016020809104026020016040519081016040528093929190818152602001838380828437600081840152601f19601f8201169050808301925050505050505081526020018481526020013373ffffffffffffffffffffffffffffffffffffffff16815250905060018190806001815401808255809150506001900390600052602060002090600402016000909190919091506000820151816000015560208201518160010190816105dd919061151f565b506040820151816002015560608201518160030160006101000a81548173ffffffffffffffffffffffffffffffffffffffff021916908373ffffffffffffffffffffffffffffffffffffffff1602179055505050600360003373ffffffffffffffffffffffffffffffffffffffff1673ffffffffffffffffffffffffffffffffffffffff1681526020019081526020016000208190806001815401808255809150506001900390600052602060002090600402016000909190919091506000820151816000015560208201518160010190816106b9919061151f565b506040820151816002015560608201518160030160006101000a81548173ffffffffffffffffffffffffffffffffffffffff021916908373ffffffffffffffffffffffffffffffffffffffff1602179055505050806002600080548152602001908152602001600020600082015181600001556020820151816001019081610741919061151f565b506040820151816002015560608201518160030160006101000a81548173ffffffffffffffffffffffffffffffffffffffff021916908373ffffffffffffffffffffffffffffffffffffffff160217905550905050809150509392505050565b6107a9610c37565b60026000838152602001908152602001600020604051806080016040529081600082015481526020016001820180546107e190611296565b80601f016020809104026020016040519081016040528092919081815260200182805461080d90611296565b801561085a5780601f1061082f5761010080835404028352916020019161085a565b820191906000526020600020905b81548152906001019060200180831161083d57829003601f168201915b50505050508152602001600282015481526020016003820160009054906101000a900473ffffffffffffffffffffffffffffffffffffffff1673ffffffffffffffffffffffffffffffffffffffff1673ffffffffffffffffffffffffffffffffffffffff16815250509050919050565b600360205281600052604060002081815481106108e657600080fd5b90600052602060002090600402016000915091505080600001549080600101805461091090611296565b80601f016020809104026020016040519081016040528092919081815260200182805461093c90611296565b80156109895780601f1061095e57610100808354040283529160200191610989565b820191906000526020600020905b81548152906001019060200180831161096c57829003601f168201915b5050505050908060020154908060030160009054906101000a900473ffffffffffffffffffffffffffffffffffffffff16905084565b60005481565b60026020528060005260406000206000915090508060000154908060010180546109ee90611296565b80601f0160208091040260200160405190810160405280929190818152602001828054610a1a90611296565b8015610a675780601f10610a3c57610100808354040283529160200191610a67565b820191906000526020600020905b815481529060010190602001808311610a4a57829003601f168201915b5050505050908060020154908060030160009054906101000a900473ffffffffffffffffffffffffffffffffffffffff16905084565b6060600360008373ffffffffffffffffffffffffffffffffffffffff1673ffffffffffffffffffffffffffffffffffffffff168152602001908152602001600020805480602002602001604051908101604052809291908181526020016000905b82821015610c2c578382906000526020600020906004020160405180608001604052908160008201548152602001600182018054610b3b90611296565b80601f0160208091040260200160405190810160405280929190818152602001828054610b6790611296565b8015610bb45780601f10610b8957610100808354040283529160200191610bb4565b820191906000526020600020905b815481529060010190602001808311610b9757829003601f168201915b50505050508152602001600282015481526020016003820160009054906101000a900473ffffffffffffffffffffffffffffffffffffffff1673ffffffffffffffffffffffffffffffffffffffff1673ffffffffffffffffffffffffffffffffffffffff168152505081526020019060010190610afe565b505050509050919050565b6040518060800160405280600081526020016060815260200160008152602001600073ffffffffffffffffffffffffffffffffffffffff1681525090565b600080fd5b600080fd5b6000819050919050565b610c9281610c7f565b8114610c9d57600080fd5b50565b600081359050610caf81610c89565b92915050565b60008060408385031215610ccc57610ccb610c75565b5b6000610cda85828601610ca0565b9250506020610ceb85828601610ca0565b9150509250929050565b610cfe81610c7f565b82525050565b600081519050919050565b600082825260208201905092915050565b60005b83811015610d3e578082015181840152602081019050610d23565b60008484015250505050565b6000601f19601f8301169050919050565b6000610d6682610d04565b610d708185610d0f565b9350610d80818560208601610d20565b610d8981610d4a565b840191505092915050565b600073ffffffffffffffffffffffffffffffffffffffff82169050919050565b6000610dbf82610d94565b9050919050565b610dcf81610db4565b82525050565b6000608083016000830151610ded6000860182610cf5565b5060208301518482036020860152610e058282610d5b565b9150506040830151610e1a6040860182610cf5565b506060830151610e2d6060860182610dc6565b508091505092915050565b60006020820190508181036000830152610e528184610dd5565b905092915050565b600060208284031215610e7057610e6f610c75565b5b6000610e7e84828501610ca0565b91505092915050565b610e9081610c7f565b82525050565b600082825260208201905092915050565b6000610eb282610d04565b610ebc8185610e96565b9350610ecc818560208601610d20565b610ed581610d4a565b840191505092915050565b610ee981610db4565b82525050565b6000608082019050610f046000830187610e87565b8181036020830152610f168186610ea7565b9050610f256040830185610e87565b610f326060830184610ee0565b95945050505050565b600080fd5b600080fd5b600080fd5b60008083601f840112610f6057610f5f610f3b565b5b8235905067ffffffffffffffff811115610f7d57610f7c610f40565b5b602083019150836001820283011115610f9957610f98610f45565b5b9250929050565b600080600060408486031215610fb957610fb8610c75565b5b600084013567ffffffffffffffff811115610fd757610fd6610c7a565b5b610fe386828701610f4a565b93509350506020610ff686828701610ca0565b9150509250925092565b61100981610db4565b811461101457600080fd5b50565b60008135905061102681611000565b92915050565b6000806040838503121561104357611042610c75565b5b600061105185828601611017565b925050602061106285828601610ca0565b9150509250929050565b60006020820190506110816000830184610e87565b92915050565b60006020828403121561109d5761109c610c75565b5b60006110ab84828501611017565b91505092915050565b600081519050919050565b600082825260208201905092915050565b6000819050602082019050919050565b60006080830160008301516110f86000860182610cf5565b50602083015184820360208601526111108282610d5b565b91505060408301516111256040860182610cf5565b5060608301516111386060860182610dc6565b508091505092915050565b600061114f83836110e0565b905092915050565b6000602082019050919050565b600061116f826110b4565b61117981856110bf565b93508360208202850161118b856110d0565b8060005b858110156111c757848403895281516111a88582611143565b94506111b383611157565b925060208a0199505060018101905061118f565b50829750879550505050505092915050565b600060208201905081810360008301526111f38184611164565b905092915050565b7f73656e646572206973206e6f74206f776e657200000000000000000000000000600082015250565b6000611231601383610e96565b915061123c826111fb565b602082019050919050565b6000602082019050818103600083015261126081611224565b9050919050565b7f4e487b7100000000000000000000000000000000000000000000000000000000600052602260045260246000fd5b600060028204905060018216806112ae57607f821691505b6020821081036112c1576112c0611267565b5b50919050565b7f4e487b7100000000000000000000000000000000000000000000000000000000600052601160045260246000fd5b600061130182610c7f565b91507fffffffffffffffffffffffffffffffffffffffffffffffffffffffffffffffff8203611333576113326112c7565b5b600182019050919050565b7f4e487b7100000000000000000000000000000000000000000000000000000000600052604160045260246000fd5b60008190508160005260206000209050919050565b60006020601f8301049050919050565b60008160020a8302905092915050565b6000600883026113d27fffffffffffffffffffffffffffffffffffffffffffffffffffffffffffffffff82611392565b6113dc8683611392565b95508019841693508086168417925050509392505050565b6000819050919050565b600061141961141461140f84610c7f565b6113f4565b610c7f565b9050919050565b6000819050919050565b611433836113fe565b61144761143f82611420565b8484546113a2565b825550505050565b600090565b61145c61144f565b61146781848461142a565b505050565b5b8181101561148b57611480600082611454565b60018101905061146d565b5050565b601f8211156114d0576114a18161136d565b6114aa84611382565b810160208510156114b9578190505b6114cd6114c585611382565b83018261146c565b50505b505050565b60008160020a8304905092915050565b60006114f6600019846008026114d5565b1980831691505092915050565b600061150f83836114e5565b9150826002028217905092915050565b61152882610d04565b67ffffffffffffffff8111156115415761154061133e565b5b61154b8254611296565b61155682828561148f565b600060209050601f8311600181146115895760008415611577578287015190505b6115818582611503565b8655506115e9565b601f1984166115978661136d565b60005b828110156115bf5784890151825560018201915060208501945060208101905061159a565b868310156115dc57848901516115d8601f8916826114e5565b8355505b6001600288020188555050505b50505050505056fea26469706673582212207ba7be75291b4c9a02c802ccda254713271b0c47a1fbb1c8a159122bdd62511064736f6c63430008190033",
  "immutableReferences": {},
  "source": "// SPDX-License-Identifier: MIT\npragma solidity ^0.8.25;\n\ncontract App {\n    uint public sensorIndex;\n\n    struct Sensor {\n        uint id;\n        string name;\n        uint value;\n        address user;\n    }\n\n    Sensor[] public sensors;\n    mapping (uint => Sensor) public sensorByID; // maps sensor to ID\n    mapping (address => Sensor[]) public userSensors; // maps user address to array of Sensors\n\n    // Create sensor and set value\n    // - external because it's called only from outside\n    function createSensor(string calldata name, uint value) external returns(Sensor memory) {\n        sensorIndex++;\n        // memory because the variable only exists in this function\n        Sensor memory sensor = Sensor({\n            id: sensorIndex,\n            name: name,\n            value: value,\n            user: msg.sender\n        });\n\n        sensors.push(sensor);\n        userSensors[msg.sender].push(sensor);\n        sensorByID[sensorIndex] = sensor;\n\n        return sensor;\n    }\n\n    // get sensors linked to address making request\n    // - external because it's called only from the outside\n    // - view because it does not change any state\n    function getSensors(address user) external view returns (Sensor[] memory) {\n        return userSensors[user];\n    }\n\n    // Update sensor value. Returns an error if not owner.\n    // - external because it's called only from outside\n    function updateSensor(uint id, uint value) external returns(Sensor memory) {\n        require(sensorByID[id].user == msg.sender, \"sender is not owner\"); // sender must be owner\n        sensorByID[id].value = value;\n        return sensorByID[id];\n    }\n\n    // get sensors linked to address making request\n    // - public because it can be called externally and internally\n    // - view because it does not change any state\n    function getSensor(uint id) public view returns (Sensor memory) {\n        return sensorByID[id];\n    }\n}",
  "sourcePath": "/Users/emiliomarin/go/src/blockchain-sample/contracts/App.sol",
  "compiler": {
    "name": "solc",
    "version": "0.8.25+commit.b61c2a91.Emscripten.clang"
  },
  "schemaVersion": "3.4.16",
  "updatedAt": "2024-08-04T18:30:52.330Z",
  "networkType": "ethereum",
  "devdoc": {
    "kind": "dev",
    "methods": {},
    "version": 1
  },
  "userdoc": {
    "kind": "user",
    "methods": {},
    "version": 1
  }
}